{
  "transactions": [
    {
      "hash": "0xf56f2b56af3aae095c7a97199ca8e600491e53ce71c33813abd6ead58b2e61cf",
      "transactionType": "CALL",
      "contractName": null,
      "contractAddress": "0x07625becaa1714d655d2a692ee78b667c48ce2b2",
      "function": "approve(address,uint256)",
      "arguments": [
        "0x420a1bC7AA832E2521389c618bC7D309b8F4F1df",
        "1000000000000"
      ],
      "transaction": {
        "from": "0x46cc7efbc0fb7f80c037b33c7fe416692ea1075b",
        "to": "0x07625becaa1714d655d2a692ee78b667c48ce2b2",
        "gas": "0xfd33",
        "value": "0x0",
        "input": "0x095ea7b3000000000000000000000000420a1bc7aa832e2521389c618bc7d309b8f4f1df000000000000000000000000000000000000000000000000000000e8d4a51000",
        "nonce": "0x1",
        "chainId": "0x3039"
      },
      "additionalContracts": [],
      "isFixedGasLimit": false
    },
    {
      "hash": "0x7616f6a6b1a0bc49ecedc28373f1ec0086b37325499940a083117d02874fee12",
      "transactionType": "CALL",
      "contractName": null,
      "contractAddress": "0x420a1bc7aa832e2521389c618bc7d309b8f4f1df",
      "function": "startRoamingSession(address,uint256,uint256,bytes)",
      "arguments": [
        "0x0Ea0Eb8061cBdaF6684852A583234d882dA63d25",
        "1000000000000",
        "0",
        "0x494e5a309cac5c3f05bbc2d33a99e4d09dc4065a0af34e10b261ad04cc598d9727a318b26b42c883336622733ca362be85be56666fbc66fc45afced26e5b22791c"
      ],
      "transaction": {
        "from": "0x46cc7efbc0fb7f80c037b33c7fe416692ea1075b",
        "to": "0x420a1bc7aa832e2521389c618bc7d309b8f4f1df",
        "gas": "0x6469b",
        "value": "0x0",
        "input": "0x3723bcfc0000000000000000000000000ea0eb8061cbdaf6684852a583234d882da63d25000000000000000000000000000000000000000000000000000000e8d4a51000000000000000000000000000000000000000000000000000000000000000000000000000000000000000000000000000000000000000000000000000000000800000000000000000000000000000000000000000000000000000000000000041494e5a309cac5c3f05bbc2d33a99e4d09dc4065a0af34e10b261ad04cc598d9727a318b26b42c883336622733ca362be85be56666fbc66fc45afced26e5b22791c00000000000000000000000000000000000000000000000000000000000000",
        "nonce": "0x2",
        "chainId": "0x3039"
      },
      "additionalContracts": [],
      "isFixedGasLimit": false
    }
  ],
  "receipts": [
    {
      "status": "0x1",
      "cumulativeGasUsed": "0xb750",
      "logs": [
        {
          "address": "0x07625becaa1714d655d2a692ee78b667c48ce2b2",
          "topics": [
            "0x8c5be1e5ebec7d5bd14f71427d1e84f3dd0314c0f7b2291e5b200ac8c7c3b925",
            "0x00000000000000000000000046cc7efbc0fb7f80c037b33c7fe416692ea1075b",
            "0x000000000000000000000000420a1bc7aa832e2521389c618bc7d309b8f4f1df"
          ],
          "data": "0x000000000000000000000000000000000000000000000000000000e8d4a51000",
          "blockHash": "0x41c56d1aa670c05af252d82ad7e974a6b82c73274e55ddee2df43eecf4319f77",
          "blockNumber": "0x10",
          "transactionHash": "0xf56f2b56af3aae095c7a97199ca8e600491e53ce71c33813abd6ead58b2e61cf",
          "transactionIndex": "0x0",
          "logIndex": "0x0",
          "removed": false
        }
      ],
      "logsBloom": "0x00000000000000000000000000000000000000000000000000000000000000000000000000000000000000000000000000000000000000000000000000200000000000000000000000204000000000000200000000000000000000000000000000000000000000000000000000000000000008000400000000000000000010800000000000004000000000000000000000000000004000000000000000000000020000000000000000000000000000000000000000000000000000000000000000000000000000000000000000000000000000000000000000000000000000000010000000000000000000000000000000000000000000000000000000000000",
      "type": "0x2",
      "transactionHash": "0xf56f2b56af3aae095c7a97199ca8e600491e53ce71c33813abd6ead58b2e61cf",
      "transactionIndex": "0x0",
      "blockHash": "0x41c56d1aa670c05af252d82ad7e974a6b82c73274e55ddee2df43eecf4319f77",
      "blockNumber": "0x10",
      "gasUsed": "0xb750",
      "effectiveGasPrice": "0x70f7ba1",
      "from": "0x46cc7efbc0fb7f80c037b33c7fe416692ea1075b",
      "to": "0x07625becaa1714d655d2a692ee78b667c48ce2b2",
      "contractAddress": null
    },
    {
      "status": "0x1",
      "cumulativeGasUsed": "0x501d9",
      "logs": [
        {
          "address": "0x07625becaa1714d655d2a692ee78b667c48ce2b2",
          "topics": [
            "0xddf252ad1be2c89b69c2b068fc378daa952ba7f163c4a11628f55a4df523b3ef",
            "0x00000000000000000000000046cc7efbc0fb7f80c037b33c7fe416692ea1075b",
            "0x000000000000000000000000420a1bc7aa832e2521389c618bc7d309b8f4f1df"
          ],
          "data": "0x000000000000000000000000000000000000000000000000000000e8d4a51000",
          "blockHash": "0x41c56d1aa670c05af252d82ad7e974a6b82c73274e55ddee2df43eecf4319f77",
          "blockNumber": "0x10",
          "transactionHash": "0x7616f6a6b1a0bc49ecedc28373f1ec0086b37325499940a083117d02874fee12",
          "transactionIndex": "0x1",
          "logIndex": "0x1",
          "removed": false
        },
        {
          "address": "0x420a1bc7aa832e2521389c618bc7d309b8f4f1df",
          "topics": [
            "0x1e2acbf7a614d8b82d369b20ea09000e1b94c8e5d38cc245265aa6eee0da7d05",
            "0x0000000000000000000000000000000000000000000000000000000000000001",
            "0x00000000000000000000000046cc7efbc0fb7f80c037b33c7fe416692ea1075b",
            "0x00000000000000000000000058d85998a7c6ed077f9fb913700f5f5da539a786"
          ],
          "data": "0x0000000000000000000000000ea0eb8061cbdaf6684852a583234d882da63d25000000000000000000000000000000000000000000000000000000e8d4a51000",
          "blockHash": "0x41c56d1aa670c05af252d82ad7e974a6b82c73274e55ddee2df43eecf4319f77",
          "blockNumber": "0x10",
          "transactionHash": "0x7616f6a6b1a0bc49ecedc28373f1ec0086b37325499940a083117d02874fee12",
          "transactionIndex": "0x1",
          "logIndex": "0x2",
          "removed": false
        }
      ],
      "logsBloom": "0x00400000000008000000000000000000010000000000000000000020000000000000000000000000000000000000000000000000004000000000000000040000000000000000000000204008002000000200000000040000000000000000000000000000000000000000000000000000000008000400000000000050000010800000000000004004000000000000000000000000004000000000000000000000000000000000000000000000000000000000000004000000000000000000000000000002000000000000000000000000000000000000000000000000000040000000000000000000000000000000000000000000000000000000000000000000",
      "type": "0x2",
      "transactionHash": "0x7616f6a6b1a0bc49ecedc28373f1ec0086b37325499940a083117d02874fee12",
      "transactionIndex": "0x1",
      "blockHash": "0x41c56d1aa670c05af252d82ad7e974a6b82c73274e55ddee2df43eecf4319f77",
      "blockNumber": "0x10",
      "gasUsed": "0x44a89",
      "effectiveGasPrice": "0x70f7ba1",
      "from": "0x46cc7efbc0fb7f80c037b33c7fe416692ea1075b",
      "to": "0x420a1bc7aa832e2521389c618bc7d309b8f4f1df",
      "contractAddress": null
    }
  ],
  "libraries": [],
  "pending": [],
  "returns": {},
  "timestamp": 1757023436197,
  "chain": 12345,
  "commit": "93a47e0"
}