{
  "transactions": [
    {
      "hash": "0x817ded753827cedae63ce0b5dd3b926858f888b3052e92a59d6a0418935c3886",
      "transactionType": "CALL",
      "contractName": null,
      "contractAddress": "0x420a1bc7aa832e2521389c618bc7d309b8f4f1df",
      "function": "terminateRoamingSession(uint256,uint256[2],uint256[2][2],uint256[2],uint256)",
      "arguments": [
        "1",
        "[7973555458371076428956319152584190203314989762290225079173152570929396583704, 14348106079672606687088140933903092452730771770762070515836554631929417880170]",
        "[[16963610603200377976833408033437284365398314498184362953375648500904342283937, 16417839066260050095392574777922657538424612399348492453825014223548940844681], [14912519771745605621325905850606490875792486697310060039787958392275439548861, 10375445076022075504020196268614286013611267964444562206549608097848626202038]]",
        "[9305284201059228309563969207667800077708786656921457868245289576444822031414, 4517657556636453038989037909178494728104180160348261698129911785849158930606]",
        "123720000000"
      ],
      "transaction": {
        "from": "0x58d85998a7c6ed077f9fb913700f5f5da539a786",
        "to": "0x420a1bc7aa832e2521389c618bc7d309b8f4f1df",
        "gas": "0x778ce",
        "value": "0x0",
        "input": "0x12c9e5e9000000000000000000000000000000000000000000000000000000000000000111a0df597d890ebb2e588ac6bfba02078ac074ee8ad81f77feb34dc954b00d181fb8bd8136e118504767335412f96fdf0cf63b9d469b84a31237d021b27ad26a25811037df60e0fbce5c8cf5cae576205127786468212240e4209607d6f366a1244c2ae874a7734bc3b342af86032fd4c51de9f6018d3b7006330f55fc747e8920f82fe49897c4f2837d7c11ba69b143a6029e59dc95ae34b7cbda59cbd979bd16f04b36ebc70d12d6dc9278b37416b76760e2ecfe41280421feaec9703f45b614929aadecb4cc91451ce9976c8f9c725547f81bead40e4b32ae7e1f23240c3609fce74ff52f64556f90c99bbf9e2a5998d1739456cd097e9a19f76f00fc90ae0000000000000000000000000000000000000000000000000000001cce496200",
        "nonce": "0x0",
        "chainId": "0x3039"
      },
      "additionalContracts": [],
      "isFixedGasLimit": false
    }
  ],
  "receipts": [
    {
      "status": "0x1",
      "cumulativeGasUsed": "0x568d7",
      "logs": [
        {
          "address": "0x07625becaa1714d655d2a692ee78b667c48ce2b2",
          "topics": [
            "0xddf252ad1be2c89b69c2b068fc378daa952ba7f163c4a11628f55a4df523b3ef",
            "0x000000000000000000000000420a1bc7aa832e2521389c618bc7d309b8f4f1df",
            "0x00000000000000000000000058d85998a7c6ed077f9fb913700f5f5da539a786"
          ],
          "data": "0x0000000000000000000000000000000000000000000000000000001cce496200",
          "blockHash": "0xae47210b30c7e77d10d686acaef97afe81232b9e31aedbeeb648ea87dc9bc08b",
          "blockNumber": "0x19",
          "transactionHash": "0x817ded753827cedae63ce0b5dd3b926858f888b3052e92a59d6a0418935c3886",
          "transactionIndex": "0x0",
          "logIndex": "0x0",
          "removed": false
        },
        {
          "address": "0x07625becaa1714d655d2a692ee78b667c48ce2b2",
          "topics": [
            "0xddf252ad1be2c89b69c2b068fc378daa952ba7f163c4a11628f55a4df523b3ef",
            "0x000000000000000000000000420a1bc7aa832e2521389c618bc7d309b8f4f1df",
            "0x00000000000000000000000046cc7efbc0fb7f80c037b33c7fe416692ea1075b"
          ],
          "data": "0x000000000000000000000000000000000000000000000000000000cc065bae00",
          "blockHash": "0xae47210b30c7e77d10d686acaef97afe81232b9e31aedbeeb648ea87dc9bc08b",
          "blockNumber": "0x19",
          "transactionHash": "0x817ded753827cedae63ce0b5dd3b926858f888b3052e92a59d6a0418935c3886",
          "transactionIndex": "0x0",
          "logIndex": "0x1",
          "removed": false
        },
        {
          "address": "0x420a1bc7aa832e2521389c618bc7d309b8f4f1df",
          "topics": [
            "0xffd9049cdf58c4c062f7e4fe74d172fa92a11b8e8dde2a72b3aabbf277acce52",
            "0x0000000000000000000000000000000000000000000000000000000000000001",
            "0x00000000000000000000000058d85998a7c6ed077f9fb913700f5f5da539a786"
          ],
          "data": "0x0000000000000000000000000000000000000000000000000000001cce4962000000000000000000000000000000000000000000000000000000001cce496200",
          "blockHash": "0xae47210b30c7e77d10d686acaef97afe81232b9e31aedbeeb648ea87dc9bc08b",
          "blockNumber": "0x19",
          "transactionHash": "0x817ded753827cedae63ce0b5dd3b926858f888b3052e92a59d6a0418935c3886",
          "transactionIndex": "0x0",
          "logIndex": "0x2",
          "removed": false
        }
      ],
      "logsBloom": "0x00000000000008000000000000000000000000000000000000000020000000000000000000000000000000000000000000000000004000000000000000040000000000000000000000204008002000000200000000040100000000000000000000000000000000000000000000000000000008000400000000000050000010800000000000004000000000000000000000000000004000000000000000000000000000000000000000000000000000000000000004000000000000000000000000000002000000000000000000000000000000000000000002000000000040040000000000000000000000000000000000000000000000000000000000000000",
      "type": "0x2",
      "transactionHash": "0x817ded753827cedae63ce0b5dd3b926858f888b3052e92a59d6a0418935c3886",
      "transactionIndex": "0x0",
      "blockHash": "0xae47210b30c7e77d10d686acaef97afe81232b9e31aedbeeb648ea87dc9bc08b",
      "blockNumber": "0x19",
      "gasUsed": "0x568d7",
      "effectiveGasPrice": "0x2201d86",
      "from": "0x58d85998a7c6ed077f9fb913700f5f5da539a786",
      "to": "0x420a1bc7aa832e2521389c618bc7d309b8f4f1df",
      "contractAddress": null
    }
  ],
  "libraries": [],
  "pending": [],
  "returns": {},
  "timestamp": 1757023481129,
  "chain": 12345,
  "commit": "93a47e0"
}